{
  "_format": "hh-sol-artifact-1",
  "contractName": "RecycleChain",
  "sourceName": "contracts/RecycleChain.sol",
  "abi": [
    {
      "inputs": [],
      "stateMutability": "nonpayable",
      "type": "constructor"
    },
    {
      "anonymous": false,
      "inputs": [
        {
          "indexed": false,
          "internalType": "address",
          "name": "manufaturer",
          "type": "address"
        },
        {
          "indexed": false,
          "internalType": "string",
          "name": "name",
          "type": "string"
        },
        {
          "indexed": false,
          "internalType": "string",
          "name": "location",
          "type": "string"
        },
        {
          "indexed": false,
          "internalType": "string",
          "name": "contact",
          "type": "string"
        }
      ],
      "name": "ManufacturerRegistered",
      "type": "event"
    },
    {
      "anonymous": false,
      "inputs": [
        {
          "indexed": false,
          "internalType": "uint256",
          "name": "productId",
          "type": "uint256"
        },
        {
          "indexed": false,
          "internalType": "string",
          "name": "name",
          "type": "string"
        },
        {
          "indexed": false,
          "internalType": "address",
          "name": "manufacturer",
          "type": "address"
        }
      ],
      "name": "ProductCreated",
      "type": "event"
    },
    {
      "anonymous": false,
      "inputs": [
        {
          "indexed": false,
          "internalType": "string[]",
          "name": "itemsIds",
          "type": "string[]"
        },
        {
          "indexed": false,
          "internalType": "uint256",
          "name": "productId",
          "type": "uint256"
        }
      ],
      "name": "ProductItemsAdded",
      "type": "event"
    },
    {
      "anonymous": false,
      "inputs": [
        {
          "indexed": false,
          "internalType": "uint256[]",
          "name": "itemsIds",
          "type": "uint256[]"
        },
        {
          "indexed": false,
          "internalType": "enum RecycleChain.ProductStatus",
          "name": "status",
          "type": "uint8"
        }
      ],
      "name": "ProductItemsStatusChanged",
      "type": "event"
    },
    {
      "anonymous": false,
      "inputs": [
        {
          "indexed": false,
          "internalType": "uint256",
          "name": "productId",
          "type": "uint256"
        },
        {
          "indexed": false,
          "internalType": "string",
          "name": "name",
          "type": "string"
        },
        {
          "indexed": false,
          "internalType": "uint256",
          "name": "weight",
          "type": "uint256"
        }
      ],
      "name": "ToxicItemCreated",
      "type": "event"
    },
    {
      "inputs": [
        {
          "internalType": "string",
          "name": "_name",
          "type": "string"
        },
        {
          "internalType": "string[]",
          "name": "toxicNames",
          "type": "string[]"
        },
        {
          "internalType": "uint256[]",
          "name": "toxicWeights",
          "type": "uint256[]"
        }
      ],
      "name": "addProduct",
      "outputs": [],
      "stateMutability": "nonpayable",
      "type": "function"
    },
    {
      "inputs": [
        {
          "internalType": "uint256",
          "name": "_productId",
          "type": "uint256"
        },
        {
          "internalType": "uint256",
          "name": "_quantity",
          "type": "uint256"
        }
      ],
      "name": "addProductItems",
      "outputs": [],
      "stateMutability": "nonpayable",
      "type": "function"
    },
    {
      "inputs": [
        {
          "internalType": "address",
          "name": "",
          "type": "address"
        },
        {
          "internalType": "uint256",
          "name": "",
          "type": "uint256"
        }
      ],
      "name": "inventory",
      "outputs": [
        {
          "internalType": "string",
          "name": "",
          "type": "string"
        }
      ],
      "stateMutability": "view",
      "type": "function"
    },
    {
      "inputs": [
        {
          "internalType": "address",
          "name": "",
          "type": "address"
        }
      ],
      "name": "manufacturers",
      "outputs": [
        {
          "internalType": "string",
          "name": "name",
          "type": "string"
        },
        {
          "internalType": "string",
          "name": "location",
          "type": "string"
        },
        {
          "internalType": "string",
          "name": "contact",
          "type": "string"
        }
      ],
      "stateMutability": "view",
      "type": "function"
    },
    {
      "inputs": [],
      "name": "owner",
      "outputs": [
        {
          "internalType": "address payable",
          "name": "",
          "type": "address"
        }
      ],
      "stateMutability": "view",
      "type": "function"
    },
    {
      "inputs": [],
      "name": "productCounter",
      "outputs": [
        {
          "internalType": "uint256",
          "name": "",
          "type": "uint256"
        }
      ],
      "stateMutability": "view",
      "type": "function"
    },
    {
      "inputs": [
        {
          "internalType": "string",
          "name": "",
          "type": "string"
        }
      ],
      "name": "productItem",
      "outputs": [
        {
          "internalType": "string",
          "name": "id",
          "type": "string"
        },
        {
          "internalType": "uint256",
          "name": "productId",
          "type": "uint256"
        },
        {
          "internalType": "enum RecycleChain.ProductStatus",
          "name": "status",
          "type": "uint8"
        }
      ],
      "stateMutability": "view",
      "type": "function"
    },
    {
      "inputs": [
        {
          "internalType": "uint256",
          "name": "",
          "type": "uint256"
        }
      ],
      "name": "products",
      "outputs": [
        {
          "internalType": "uint256",
          "name": "id",
          "type": "uint256"
        },
        {
          "internalType": "string",
          "name": "name",
          "type": "string"
        },
        {
          "internalType": "uint256",
          "name": "quantity",
          "type": "uint256"
        },
        {
          "internalType": "address",
          "name": "manufacturer",
          "type": "address"
        }
      ],
      "stateMutability": "view",
      "type": "function"
    },
    {
      "inputs": [
        {
          "internalType": "string",
          "name": "_name",
          "type": "string"
        },
        {
          "internalType": "string",
          "name": "_location",
          "type": "string"
        },
        {
          "internalType": "string",
          "name": "_contact",
          "type": "string"
        }
      ],
      "name": "registerManufaturer",
      "outputs": [],
      "stateMutability": "nonpayable",
      "type": "function"
    },
    {
      "inputs": [
        {
          "internalType": "uint256[]",
          "name": "itemIds",
          "type": "uint256[]"
        },
        {
          "components": [
            {
              "internalType": "string",
              "name": "id",
              "type": "string"
            },
            {
              "internalType": "uint256",
              "name": "productId",
              "type": "uint256"
            },
            {
              "internalType": "enum RecycleChain.ProductStatus",
              "name": "status",
              "type": "uint8"
            }
          ],
          "internalType": "struct RecycleChain.ProductItem[]",
          "name": "productItems",
          "type": "tuple[]"
        }
      ],
      "name": "returnProductItems",
      "outputs": [],
      "stateMutability": "nonpayable",
      "type": "function"
    },
    {
      "inputs": [
        {
          "internalType": "uint256[]",
          "name": "itemIds",
          "type": "uint256[]"
        },
        {
          "components": [
            {
              "internalType": "string",
              "name": "id",
              "type": "string"
            },
            {
              "internalType": "uint256",
              "name": "productId",
              "type": "uint256"
            },
            {
              "internalType": "enum RecycleChain.ProductStatus",
              "name": "status",
              "type": "uint8"
            }
          ],
          "internalType": "struct RecycleChain.ProductItem[]",
          "name": "productItems",
          "type": "tuple[]"
        }
      ],
      "name": "sellProductItems",
      "outputs": [],
      "stateMutability": "nonpayable",
      "type": "function"
    }
  ],
  "bytecode": "0x6080604052348015600f57600080fd5b506000808190555033600160006101000a81548173ffffffffffffffffffffffffffffffffffffffff021916908373ffffffffffffffffffffffffffffffffffffffff160217905550612da2806100676000396000f3fe608060405234801561001057600080fd5b50600436106100a95760003560e01c806373024b9a1161007157806373024b9a146101665780637acc0b20146101825780638da5cb5b146101b55780639cdd9f4b146101d3578063a84a1d1b146101ef578063edb4a1e414610221576100a9565b806304e13137146100ae578063134f4080146100ca5780631f16653b146100e657806368f222fd146101045780636b5eb09c14610134575b600080fd5b6100c860048036038101906100c3919061157f565b61023d565b005b6100e460048036038101906100df9190611705565b6105ed565b005b6100ee6107a9565b6040516100fb91906117bb565b60405180910390f35b61011e60048036038101906101199190611834565b6107af565b60405161012b91906118f3565b60405180910390f35b61014e60048036038101906101499190611915565b610868565b60405161015d93929190611942565b60405180910390f35b610180600480360381019061017b9190611be6565b610a2a565b005b61019c60048036038101906101979190611c5e565b610bd3565b6040516101ac9493929190611c9a565b60405180910390f35b6101bd610cab565b6040516101ca9190611d07565b60405180910390f35b6101ed60048036038101906101e89190611be6565b610cd1565b005b61020960048036038101906102049190611d22565b610f0f565b60405161021893929190611de2565b60405180910390f35b61023b60048036038101906102369190611f01565b610fe4565b005b600a811115610281576040517f08c379a00000000000000000000000000000000000000000000000000000000081526004016102789061201a565b60405180910390fd5b6002600083815260200190815260200160002060030160009054906101000a900473ffffffffffffffffffffffffffffffffffffffff1673ffffffffffffffffffffffffffffffffffffffff163373ffffffffffffffffffffffffffffffffffffffff1614610325576040517f08c379a000000000000000000000000000000000000000000000000000000000815260040161031c906120ac565b60405180910390fd5b8160026000848152602001908152602001600020600001541461037d576040517f08c379a000000000000000000000000000000000000000000000000000000000815260040161037490612118565b60405180910390fd5b60008167ffffffffffffffff811115610399576103986115da565b5b6040519080825280602002602001820160405280156103cc57816020015b60608152602001906001900390816103b75790505b50905060005b828110156105815760006103e585611314565b61041b600184600260008a81526020019081526020016000206002015461040c9190612167565b6104169190612167565b611314565b60405160200161042c9291906121e7565b6040516020818303038152906040529050600060405180606001604052808381526020018781526020016000600381111561046a57610469611d6b565b5b815250905080600383604051610480919061226d565b908152602001604051809103902060008201518160000190816104a39190612490565b506020820151816001015560408201518160020160006101000a81548160ff021916908360038111156104d9576104d8611d6b565b5b0217905550905050600460003373ffffffffffffffffffffffffffffffffffffffff1673ffffffffffffffffffffffffffffffffffffffff168152602001908152602001600020829080600181540180825580915050600190039060005260206000200160009091909190915090816105529190612490565b508184848151811061056757610566612562565b5b6020026020010181905250505080806001019150506103d2565b50816002600085815260200190815260200160002060020160008282546105a89190612167565b925050819055507f83e3b6fdf797f14fb15b27293b759b0b9145a24a3260a276567713e273c5787781846040516105e092919061269d565b60405180910390a1505050565b6000835111610631576040517f08c379a00000000000000000000000000000000000000000000000000000000081526004016106289061273f565b60405180910390fd5b6000600560003373ffffffffffffffffffffffffffffffffffffffff1673ffffffffffffffffffffffffffffffffffffffff1681526020019081526020016000206000018054610680906122b3565b9050146106c2576040517f08c379a00000000000000000000000000000000000000000000000000000000081526004016106b9906127ab565b60405180910390fd5b6000604051806060016040528085815260200184815260200183815250905080600560003373ffffffffffffffffffffffffffffffffffffffff1673ffffffffffffffffffffffffffffffffffffffff16815260200190815260200160002060008201518160000190816107369190612490565b50602082015181600101908161074c9190612490565b5060408201518160020190816107629190612490565b509050507f57b346b79fe14f8142d096bf73f762b9d4ef542e0011250f22e5499155b54dac3385858560405161079b94939291906127cb565b60405180910390a150505050565b60005481565b600460205281600052604060002081815481106107cb57600080fd5b906000526020600020016000915091505080546107e7906122b3565b80601f0160208091040260200160405190810160405280929190818152602001828054610813906122b3565b80156108605780601f1061083557610100808354040283529160200191610860565b820191906000526020600020905b81548152906001019060200180831161084357829003601f168201915b505050505081565b600560205280600052604060002060009150905080600001805461088b906122b3565b80601f01602080910402602001604051908101604052809291908181526020018280546108b7906122b3565b80156109045780601f106108d957610100808354040283529160200191610904565b820191906000526020600020905b8154815290600101906020018083116108e757829003601f168201915b505050505090806001018054610919906122b3565b80601f0160208091040260200160405190810160405280929190818152602001828054610945906122b3565b80156109925780601f1061096757610100808354040283529160200191610992565b820191906000526020600020905b81548152906001019060200180831161097557829003601f168201915b5050505050908060020180546109a7906122b3565b80601f01602080910402602001604051908101604052809291908181526020018280546109d3906122b3565b8015610a205780601f106109f557610100808354040283529160200191610a20565b820191906000526020600020905b815481529060010190602001808311610a0357829003601f168201915b5050505050905083565b60005b8251811015610b94576000838281518110610a4b57610a4a612562565b5b602002602001015190506000838281518110610a6a57610a69612562565b5b60200260200101516020015103610ab6576040517f08c379a0000000000000000000000000000000000000000000000000000000008152600401610aad90612871565b60405180910390fd5b60006003811115610aca57610ac9611d6b565b5b838281518110610add57610adc612562565b5b6020026020010151604001516003811115610afb57610afa611d6b565b5b14610b3b576040517f08c379a0000000000000000000000000000000000000000000000000000000008152600401610b3290612903565b60405180910390fd5b6001838281518110610b5057610b4f612562565b5b6020026020010151604001906003811115610b6e57610b6d611d6b565b5b90816003811115610b8257610b81611d6b565b5b81525050508080600101915050610a2d565b507feeafb690f36f748a24efe696b16e5f39b6718b6f608ab2c9dc5493a622e3d86c826001604051610bc79291906129e1565b60405180910390a15050565b6002602052806000526040600020600091509050806000015490806001018054610bfc906122b3565b80601f0160208091040260200160405190810160405280929190818152602001828054610c28906122b3565b8015610c755780601f10610c4a57610100808354040283529160200191610c75565b820191906000526020600020905b815481529060010190602001808311610c5857829003601f168201915b5050505050908060020154908060030160009054906101000a900473ffffffffffffffffffffffffffffffffffffffff16905084565b600160009054906101000a900473ffffffffffffffffffffffffffffffffffffffff1681565b60005b8251811015610ed057600082848381518110610cf357610cf2612562565b5b602002602001015181518110610d0c57610d0b612562565b5b602002602001015160200151905060016003811115610d2e57610d2d611d6b565b5b83858481518110610d4257610d41612562565b5b602002602001015181518110610d5b57610d5a612562565b5b6020026020010151604001516003811115610d7957610d78611d6b565b5b14610db9576040517f08c379a0000000000000000000000000000000000000000000000000000000008152600401610db090612a5d565b60405180910390fd5b6002600082815260200190815260200160002060030160009054906101000a900473ffffffffffffffffffffffffffffffffffffffff1673ffffffffffffffffffffffffffffffffffffffff163373ffffffffffffffffffffffffffffffffffffffff1614610e5d576040517f08c379a0000000000000000000000000000000000000000000000000000000008152600401610e5490612aef565b60405180910390fd5b600283858481518110610e7357610e72612562565b5b602002602001015181518110610e8c57610e8b612562565b5b6020026020010151604001906003811115610eaa57610ea9611d6b565b5b90816003811115610ebe57610ebd611d6b565b5b81525050508080600101915050610cd4565b507feeafb690f36f748a24efe696b16e5f39b6718b6f608ab2c9dc5493a622e3d86c826002604051610f039291906129e1565b60405180910390a15050565b600381805160208101820180518482526020830160208501208183528095505050505050600091509050806000018054610f48906122b3565b80601f0160208091040260200160405190810160405280929190818152602001828054610f74906122b3565b8015610fc15780601f10610f9657610100808354040283529160200191610fc1565b820191906000526020600020905b815481529060010190602001808311610fa457829003601f168201915b5050505050908060010154908060020160009054906101000a900460ff16905083565b6000835111611028576040517f08c379a000000000000000000000000000000000000000000000000000000000815260040161101f90612b5b565b60405180910390fd5b805182511461106c576040517f08c379a000000000000000000000000000000000000000000000000000000000815260040161106390612bed565b60405180910390fd5b6000600560003373ffffffffffffffffffffffffffffffffffffffff1673ffffffffffffffffffffffffffffffffffffffff16815260200190815260200160002060000180546110bb906122b3565b9050116110fd576040517f08c379a00000000000000000000000000000000000000000000000000000000081526004016110f490612c59565b60405180910390fd5b60008081548092919061110f90612c79565b919050555060008054905060006002600083815260200190815260200160002090508181600001819055508481600101908161114b9190612490565b5060008160020181905550338160030160006101000a81548173ffffffffffffffffffffffffffffffffffffffff021916908373ffffffffffffffffffffffffffffffffffffffff1602179055507faf6ffb6277511513e7d579327cc1fc57f0266df2fb11a60b13487b8c9cd2c3888286336040516111cc93929190612cc1565b60405180910390a160005b845181101561130c5760006040518060400160405280878481518110611200576111ff612562565b5b602002602001015181526020018684815181106112205761121f612562565b5b602002602001015181525090506002600085815260200190815260200160002060040181908060018154018082558091505060019003906000526020600020906002020160009091909190915060008201518160000190816112829190612490565b506020820151816001015550507f8da7761d083dc8b6cf8015513c133dc99b31548fcf7b36249437199c03b6e6f2848784815181106112c4576112c3612562565b5b60200260200101518785815181106112df576112de612562565b5b60200260200101516040516112f693929190612cff565b60405180910390a15080806001019150506111d7565b505050505050565b606060006001611323846113e2565b01905060008167ffffffffffffffff811115611342576113416115da565b5b6040519080825280601f01601f1916602001820160405280156113745781602001600182028036833780820191505090505b509050600082602001820190505b6001156113d7578080600190039150507f3031323334353637383961626364656600000000000000000000000000000000600a86061a8153600a85816113cb576113ca612d3d565b5b04945060008503611382575b819350505050919050565b600080600090507a184f03e93ff9f4daa797ed6e38ed64bf6a1f0100000000000000008310611440577a184f03e93ff9f4daa797ed6e38ed64bf6a1f010000000000000000838161143657611435612d3d565b5b0492506040810190505b6d04ee2d6d415b85acef8100000000831061147d576d04ee2d6d415b85acef8100000000838161147357611472612d3d565b5b0492506020810190505b662386f26fc1000083106114ac57662386f26fc1000083816114a2576114a1612d3d565b5b0492506010810190505b6305f5e10083106114d5576305f5e10083816114cb576114ca612d3d565b5b0492506008810190505b61271083106114fa5761271083816114f0576114ef612d3d565b5b0492506004810190505b6064831061151d576064838161151357611512612d3d565b5b0492506002810190505b600a831061152c576001810190505b80915050919050565b6000604051905090565b600080fd5b600080fd5b6000819050919050565b61155c81611549565b811461156757600080fd5b50565b60008135905061157981611553565b92915050565b600080604083850312156115965761159561153f565b5b60006115a48582860161156a565b92505060206115b58582860161156a565b9150509250929050565b600080fd5b600080fd5b6000601f19601f8301169050919050565b7f4e487b7100000000000000000000000000000000000000000000000000000000600052604160045260246000fd5b611612826115c9565b810181811067ffffffffffffffff82111715611631576116306115da565b5b80604052505050565b6000611644611535565b90506116508282611609565b919050565b600067ffffffffffffffff8211156116705761166f6115da565b5b611679826115c9565b9050602081019050919050565b82818337600083830152505050565b60006116a86116a384611655565b61163a565b9050828152602081018484840111156116c4576116c36115c4565b5b6116cf848285611686565b509392505050565b600082601f8301126116ec576116eb6115bf565b5b81356116fc848260208601611695565b91505092915050565b60008060006060848603121561171e5761171d61153f565b5b600084013567ffffffffffffffff81111561173c5761173b611544565b5b611748868287016116d7565b935050602084013567ffffffffffffffff81111561176957611768611544565b5b611775868287016116d7565b925050604084013567ffffffffffffffff81111561179657611795611544565b5b6117a2868287016116d7565b9150509250925092565b6117b581611549565b82525050565b60006020820190506117d060008301846117ac565b92915050565b600073ffffffffffffffffffffffffffffffffffffffff82169050919050565b6000611801826117d6565b9050919050565b611811816117f6565b811461181c57600080fd5b50565b60008135905061182e81611808565b92915050565b6000806040838503121561184b5761184a61153f565b5b60006118598582860161181f565b925050602061186a8582860161156a565b9150509250929050565b600081519050919050565b600082825260208201905092915050565b60005b838110156118ae578082015181840152602081019050611893565b60008484015250505050565b60006118c582611874565b6118cf818561187f565b93506118df818560208601611890565b6118e8816115c9565b840191505092915050565b6000602082019050818103600083015261190d81846118ba565b905092915050565b60006020828403121561192b5761192a61153f565b5b60006119398482850161181f565b91505092915050565b6000606082019050818103600083015261195c81866118ba565b9050818103602083015261197081856118ba565b9050818103604083015261198481846118ba565b9050949350505050565b600067ffffffffffffffff8211156119a9576119a86115da565b5b602082029050602081019050919050565b600080fd5b60006119d26119cd8461198e565b61163a565b905080838252602082019050602084028301858111156119f5576119f46119ba565b5b835b81811015611a1e5780611a0a888261156a565b8452602084019350506020810190506119f7565b5050509392505050565b600082601f830112611a3d57611a3c6115bf565b5b8135611a4d8482602086016119bf565b91505092915050565b600067ffffffffffffffff821115611a7157611a706115da565b5b602082029050602081019050919050565b600080fd5b600080fd5b60048110611a9957600080fd5b50565b600081359050611aab81611a8c565b92915050565b600060608284031215611ac757611ac6611a82565b5b611ad1606061163a565b9050600082013567ffffffffffffffff811115611af157611af0611a87565b5b611afd848285016116d7565b6000830152506020611b118482850161156a565b6020830152506040611b2584828501611a9c565b60408301525092915050565b6000611b44611b3f84611a56565b61163a565b90508083825260208201905060208402830185811115611b6757611b666119ba565b5b835b81811015611bae57803567ffffffffffffffff811115611b8c57611b8b6115bf565b5b808601611b998982611ab1565b85526020850194505050602081019050611b69565b5050509392505050565b600082601f830112611bcd57611bcc6115bf565b5b8135611bdd848260208601611b31565b91505092915050565b60008060408385031215611bfd57611bfc61153f565b5b600083013567ffffffffffffffff811115611c1b57611c1a611544565b5b611c2785828601611a28565b925050602083013567ffffffffffffffff811115611c4857611c47611544565b5b611c5485828601611bb8565b9150509250929050565b600060208284031215611c7457611c7361153f565b5b6000611c828482850161156a565b91505092915050565b611c94816117f6565b82525050565b6000608082019050611caf60008301876117ac565b8181036020830152611cc181866118ba565b9050611cd060408301856117ac565b611cdd6060830184611c8b565b95945050505050565b6000611cf1826117d6565b9050919050565b611d0181611ce6565b82525050565b6000602082019050611d1c6000830184611cf8565b92915050565b600060208284031215611d3857611d3761153f565b5b600082013567ffffffffffffffff811115611d5657611d55611544565b5b611d62848285016116d7565b91505092915050565b7f4e487b7100000000000000000000000000000000000000000000000000000000600052602160045260246000fd5b60048110611dab57611daa611d6b565b5b50565b6000819050611dbc82611d9a565b919050565b6000611dcc82611dae565b9050919050565b611ddc81611dc1565b82525050565b60006060820190508181036000830152611dfc81866118ba565b9050611e0b60208301856117ac565b611e186040830184611dd3565b949350505050565b600067ffffffffffffffff821115611e3b57611e3a6115da565b5b602082029050602081019050919050565b6000611e5f611e5a84611e20565b61163a565b90508083825260208201905060208402830185811115611e8257611e816119ba565b5b835b81811015611ec957803567ffffffffffffffff811115611ea757611ea66115bf565b5b808601611eb489826116d7565b85526020850194505050602081019050611e84565b5050509392505050565b600082601f830112611ee857611ee76115bf565b5b8135611ef8848260208601611e4c565b91505092915050565b600080600060608486031215611f1a57611f1961153f565b5b600084013567ffffffffffffffff811115611f3857611f37611544565b5b611f44868287016116d7565b935050602084013567ffffffffffffffff811115611f6557611f64611544565b5b611f7186828701611ed3565b925050604084013567ffffffffffffffff811115611f9257611f91611544565b5b611f9e86828701611a28565b9150509250925092565b7f43616e6e6f7420616464206d6f7265207468616e2031302070726f647563742060008201527f6974656d7320617420612074696d652e00000000000000000000000000000000602082015250565b600061200460308361187f565b915061200f82611fa8565b604082019050919050565b6000602082019050818103600083015261203381611ff7565b9050919050565b7f4f6e6c79207468652070726f64756374206d616e75666163747572657220636160008201527f6e206164642070726f64756374206974656d732e000000000000000000000000602082015250565b600061209660348361187f565b91506120a18261203a565b604082019050919050565b600060208201905081810360008301526120c581612089565b9050919050565b7f50726f6475637420646f6573206e6f7420657869737400000000000000000000600082015250565b600061210260168361187f565b915061210d826120cc565b602082019050919050565b60006020820190508181036000830152612131816120f5565b9050919050565b7f4e487b7100000000000000000000000000000000000000000000000000000000600052601160045260246000fd5b600061217282611549565b915061217d83611549565b925082820190508082111561219557612194612138565b5b92915050565b7f2d00000000000000000000000000000000000000000000000000000000000000600082015250565b60006121d160018361187f565b91506121dc8261219b565b602082019050919050565b6000606082019050818103600083015261220181856118ba565b90508181036020830152612214816121c4565b9050818103604083015261222881846118ba565b90509392505050565b600081905092915050565b600061224782611874565b6122518185612231565b9350612261818560208601611890565b80840191505092915050565b6000612279828461223c565b915081905092915050565b7f4e487b7100000000000000000000000000000000000000000000000000000000600052602260045260246000fd5b600060028204905060018216806122cb57607f821691505b6020821081036122de576122dd612284565b5b50919050565b60008190508160005260206000209050919050565b60006020601f8301049050919050565b600082821b905092915050565b6000600883026123467fffffffffffffffffffffffffffffffffffffffffffffffffffffffffffffffff82612309565b6123508683612309565b95508019841693508086168417925050509392505050565b6000819050919050565b600061238d61238861238384611549565b612368565b611549565b9050919050565b6000819050919050565b6123a783612372565b6123bb6123b382612394565b848454612316565b825550505050565b600090565b6123d06123c3565b6123db81848461239e565b505050565b5b818110156123ff576123f46000826123c8565b6001810190506123e1565b5050565b601f82111561244457612415816122e4565b61241e846122f9565b8101602085101561242d578190505b612441612439856122f9565b8301826123e0565b50505b505050565b600082821c905092915050565b600061246760001984600802612449565b1980831691505092915050565b60006124808383612456565b9150826002028217905092915050565b61249982611874565b67ffffffffffffffff8111156124b2576124b16115da565b5b6124bc82546122b3565b6124c7828285612403565b600060209050601f8311600181146124fa57600084156124e8578287015190505b6124f28582612474565b86555061255a565b601f198416612508866122e4565b60005b828110156125305784890151825560018201915060208501945060208101905061250b565b8683101561254d5784890151612549601f891682612456565b8355505b6001600288020188555050505b505050505050565b7f4e487b7100000000000000000000000000000000000000000000000000000000600052603260045260246000fd5b600081519050919050565b600082825260208201905092915050565b6000819050602082019050919050565b600082825260208201905092915050565b60006125d982611874565b6125e381856125bd565b93506125f3818560208601611890565b6125fc816115c9565b840191505092915050565b600061261383836125ce565b905092915050565b6000602082019050919050565b600061263382612591565b61263d818561259c565b93508360208202850161264f856125ad565b8060005b8581101561268b578484038952815161266c8582612607565b94506126778361261b565b925060208a01995050600181019050612653565b50829750879550505050505092915050565b600060408201905081810360008301526126b78185612628565b90506126c660208301846117ac565b9392505050565b7f4d616e756661637475726572206e616d652063616e6e6f7420626520656d707460008201527f7900000000000000000000000000000000000000000000000000000000000000602082015250565b600061272960218361187f565b9150612734826126cd565b604082019050919050565b600060208201905081810360008301526127588161271c565b9050919050565b7f4d616e75666163747572657220616c7265616479207265676973746572656400600082015250565b6000612795601f8361187f565b91506127a08261275f565b602082019050919050565b600060208201905081810360008301526127c481612788565b9050919050565b60006080820190506127e06000830187611c8b565b81810360208301526127f281866118ba565b9050818103604083015261280681856118ba565b9050818103606083015261281a81846118ba565b905095945050505050565b7f50726f64756374206974656d20646f6573206e6f742065786973742e00000000600082015250565b600061285b601c8361187f565b915061286682612825565b602082019050919050565b6000602082019050818103600083015261288a8161284e565b9050919050565b7f4f6e6c79207468652070726f64756374206d616e75666163747572657220636160008201527f6e2073656c6c2070726f64756374206974656d73000000000000000000000000602082015250565b60006128ed60348361187f565b91506128f882612891565b604082019050919050565b6000602082019050818103600083015261291c816128e0565b9050919050565b600081519050919050565b600082825260208201905092915050565b6000819050602082019050919050565b61295881611549565b82525050565b600061296a838361294f565b60208301905092915050565b6000602082019050919050565b600061298e82612923565b612998818561292e565b93506129a38361293f565b8060005b838110156129d45781516129bb888261295e565b97506129c683612976565b9250506001810190506129a7565b5085935050505092915050565b600060408201905081810360008301526129fb8185612983565b9050612a0a6020830184611dd3565b9392505050565b7f50726f64756374204974656d2063616e6e6f742062652072657475726e656400600082015250565b6000612a47601f8361187f565b9150612a5282612a11565b602082019050919050565b60006020820190508181036000830152612a7681612a3a565b9050919050565b7f4f6e6c79207468652070726f64756374206d616e75666163747572657220636160008201527f6e2073656c6c2070726f64756374206974656d732e0000000000000000000000602082015250565b6000612ad960358361187f565b9150612ae482612a7d565b604082019050919050565b60006020820190508181036000830152612b0881612acc565b9050919050565b7f50726f64756374206e616d652063616e6e6f7420626520656d70747900000000600082015250565b6000612b45601c8361187f565b9150612b5082612b0f565b602082019050919050565b60006020820190508181036000830152612b7481612b38565b9050919050565b7f546f786963206974656d73206172726179206c656e677468206d69736d61746360008201527f6800000000000000000000000000000000000000000000000000000000000000602082015250565b6000612bd760218361187f565b9150612be282612b7b565b604082019050919050565b60006020820190508181036000830152612c0681612bca565b9050919050565b7f4d616e756661637475726572206e6f7420726567697374657265640000000000600082015250565b6000612c43601b8361187f565b9150612c4e82612c0d565b602082019050919050565b60006020820190508181036000830152612c7281612c36565b9050919050565b6000612c8482611549565b91507fffffffffffffffffffffffffffffffffffffffffffffffffffffffffffffffff8203612cb657612cb5612138565b5b600182019050919050565b6000606082019050612cd660008301866117ac565b8181036020830152612ce881856118ba565b9050612cf76040830184611c8b565b949350505050565b6000606082019050612d1460008301866117ac565b8181036020830152612d2681856118ba565b9050612d3560408301846117ac565b949350505050565b7f4e487b7100000000000000000000000000000000000000000000000000000000600052601260045260246000fdfea264697066735822122079ccb58fa31651227fe0214fd9f3d9c8c1c2643ddb6ca1365523d14d4141218264736f6c634300081b0033",
  "linkReferences": {},
  "deployedLinkReferences": {}
}